{
  "fileName": "GGCTokenBundled.sol",
  "contractName": "GGCToken",
  "source": "pragma solidity ^0.5.0;\r\n\r\n/*\r\n * @dev Provides information about the current execution context, including the\r\n * sender of the transaction and its data. While these are generally available\r\n * via msg.sender and msg.data, they not should not be accessed in such a direct\r\n * manner, since when dealing with GSN meta-transactions the account sending and\r\n * paying for execution may not be the actual sender (as far as an application\r\n * is concerned).\r\n *\r\n * This contract is only required for intermediate, library-like contracts.\r\n */\r\ncontract Context{\r\n    // Empty internal constructor, to prevent people from mistakenly deploying\r\n    // an instance of this contract, with should be used via inheritance.\r\n\r\n    function _msgSender() internal view returns (address) {\r\n        return msg.sender;\r\n    }\r\n\r\n    function _msgData() internal view returns (bytes memory) {\r\n        this; // silence state mutability warning without generating bytecode - see https://github.com/ethereum/solidity/issues/2691\r\n        return msg.data;\r\n    }\r\n}\r\n\r\n/**\r\n * @title Initializable\r\n *\r\n * @dev Helper contract to support initializer functions. To use it, replace\r\n * the constructor with a function that has the `initializer` modifier.\r\n * WARNING: Unlike constructors, initializer functions must be manually\r\n * invoked. This applies both to deploying an Initializable contract, as well\r\n * as extending an Initializable contract via inheritance.\r\n * WARNING: When used with inheritance, manual care must be taken to not invoke\r\n * a parent initializer twice, or ensure that all initializers are idempotent,\r\n * because this is not dealt with automatically as with constructors.\r\n */\r\ncontract Initializable {\r\n\r\n  /**\r\n   * @dev Indicates that the contract has been initialized.\r\n   */\r\n  bool private initialized;\r\n\r\n  /**\r\n   * @dev Indicates that the contract is in the process of being initialized.\r\n   */\r\n  bool private initializing;\r\n\r\n  /**\r\n   * @dev Modifier to use in the initializer function of a contract.\r\n   */\r\n  modifier initializer() {\r\n    require(initializing || isConstructor() || !initialized, \"Contract instance has already been initialized\");\r\n\r\n    bool isTopLevelCall = !initializing;\r\n    if (isTopLevelCall) {\r\n      initializing = true;\r\n      initialized = true;\r\n    }\r\n\r\n    _;\r\n\r\n    if (isTopLevelCall) {\r\n      initializing = false;\r\n    }\r\n  }\r\n\r\n  /// @dev Returns true if and only if the function is running in the constructor\r\n  function isConstructor() private view returns (bool) {\r\n    // extcodesize checks the size of the code stored in an address, and\r\n    // address returns the current address. Since the code is still not\r\n    // deployed when running a constructor, any checks on its code size will\r\n    // yield zero, making it an effective way to detect if a contract is\r\n    // under construction or not.\r\n    uint256 cs;\r\n    assembly { cs := extcodesize(address) }\r\n    return cs == 0;\r\n  }\r\n\r\n  // Reserved storage space to allow for layout changes in the future.\r\n  uint256[50] private ______gap;\r\n}\r\n\r\n/**\r\n * @title ERC20 interface\r\n * @dev see https://eips.ethereum.org/EIPS/eip-20\r\n */\r\ninterface IERC20 {\r\n    function transfer(address to, uint256 value) external returns (bool);\r\n\r\n    function approve(address spender, uint256 value) external returns (bool);\r\n\r\n    function transferFrom(address from, address to, uint256 value) external returns (bool);\r\n\r\n    function totalSupply() external view returns (uint256);\r\n\r\n    function balanceOf(address who) external view returns (uint256);\r\n\r\n    function allowance(address owner, address spender) external view returns (uint256);\r\n\r\n    event Transfer(address indexed from, address indexed to, uint256 value);\r\n\r\n    event Approval(address indexed owner, address indexed spender, uint256 value);\r\n\r\n    event Exempted(address account, uint256 value);\r\n\r\n    event UnExempted(address account);\r\n}\r\n/**\r\n * @dev Implementation of the `IERC20` interface.\r\n *\r\n * This implementation is agnostic to the way tokens are created. This means\r\n * that a supply mechanism has to be added in a derived contract using `_mint`.\r\n * For a generic mechanism see `ERC20Mintable`.\r\n *\r\n * *For a detailed writeup see our guide [How to implement supply\r\n * mechanisms](https://forum.zeppelin.solutions/t/how-to-implement-erc20-supply-mechanisms/226).*\r\n *\r\n * We have followed general OpenZeppelin guidelines: functions revert instead\r\n * of returning `false` on failure. This behavior is nonetheless conventional\r\n * and does not conflict with the expectations of ERC20 applications.\r\n *\r\n * Additionally, an `Approval` event is emitted on calls to `transferFrom`.\r\n * This allows applications to reconstruct the allowance for all accounts just\r\n * by listening to said events. Other implementations of the EIP may not emit\r\n * these events, as it isn't required by the specification.\r\n *\r\n * Finally, the non-standard `decreaseAllowance` and `increaseAllowance`\r\n * functions have been added to mitigate the well-known issues around setting\r\n * allowances. See `IERC20.approve`.\r\n */\r\ncontract ERC20 is  Initializable, Context, IERC20 {\r\n    using SafeMath for uint256;\r\n    struct exemption {\r\n        bool exempted;\r\n        uint256 value;\r\n    }\r\n\r\n    mapping (address => uint256) private _balances;\r\n    mapping (address => mapping (address => uint256)) private _allowances;\r\n    mapping (address => exemption) private exemptedAccts;\r\n\r\n    uint256 private _totalSupply;\r\n    address private feeReceiver;\r\n    uint256 private fee;\r\n    uint256 private feeDecimals;\r\n\r\n    function initialize(address _feeReceiver, uint256 _fee) public initializer {\r\n        feeReceiver = _feeReceiver;\r\n        fee = _fee;\r\n        feeDecimals = 1000000000000000000;\r\n    }\r\n\r\n    /**\r\n     * @dev See `IERC20.totalSupply`.\r\n     */\r\n    function totalSupply() public view returns (uint256) {\r\n        return _totalSupply;\r\n    }\r\n\r\n    /**\r\n     * @dev See `IERC20.balanceOf`.\r\n     */\r\n    function balanceOf(address account) public view returns (uint256) {\r\n        return _balances[account];\r\n    }\r\n\r\n    /**\r\n     * @dev See `IERC20.transfer`.\r\n     *\r\n     * Requirements:\r\n     *\r\n     * - `recipient` cannot be the zero address.\r\n     * - the caller must have a balance of at least `amount`.\r\n     */\r\n    function transfer(address recipient, uint256 amount) public returns (bool) {\r\n        _transfer(msg.sender, recipient, amount);\r\n        return true;\r\n    }\r\n\r\n    /**\r\n     * @dev See `IERC20.allowance`.\r\n     */\r\n    function allowance(address owner, address spender) public view returns (uint256) {\r\n        return _allowances[owner][spender];\r\n    }\r\n\r\n    /**\r\n     * @dev See `IERC20.approve`.\r\n     *\r\n     * Requirements:\r\n     *\r\n     * - `spender` cannot be the zero address.\r\n     */\r\n    function approve(address spender, uint256 value) public returns (bool) {\r\n        _approve(msg.sender, spender, value);\r\n        return true;\r\n    }\r\n\r\n    /**\r\n     * @dev See `IERC20.transferFrom`.\r\n     *\r\n     * Emits an `Approval` event indicating the updated allowance. This is not\r\n     * required by the EIP. See the note at the beginning of `ERC20`;\r\n     *\r\n     * Requirements:\r\n     * - `sender` and `recipient` cannot be the zero address.\r\n     * - `sender` must have a balance of at least `value`.\r\n     * - the caller must have allowance for `sender`'s tokens of at least\r\n     * `amount`.\r\n     */\r\n    function transferFrom(address sender, address recipient, uint256 amount) public returns (bool) {\r\n        _transfer(sender, recipient, amount);\r\n        _approve(sender, msg.sender, _allowances[sender][msg.sender].sub(amount));\r\n        return true;\r\n    }\r\n\r\n    /**\r\n     * @dev Atomically increases the allowance granted to `spender` by the caller.\r\n     *\r\n     * This is an alternative to `approve` that can be used as a mitigation for\r\n     * problems described in `IERC20.approve`.\r\n     *\r\n     * Emits an `Approval` event indicating the updated allowance.\r\n     *\r\n     * Requirements:\r\n     *\r\n     * - `spender` cannot be the zero address.\r\n     */\r\n    function increaseAllowance(address spender, uint256 addedValue) public returns (bool) {\r\n        _approve(msg.sender, spender, _allowances[msg.sender][spender].add(addedValue));\r\n        return true;\r\n    }\r\n\r\n    /**\r\n     * @dev Atomically decreases the allowance granted to `spender` by the caller.\r\n     *\r\n     * This is an alternative to `approve` that can be used as a mitigation for\r\n     * problems described in `IERC20.approve`.\r\n     *\r\n     * Emits an `Approval` event indicating the updated allowance.\r\n     *\r\n     * Requirements:\r\n     *\r\n     * - `spender` cannot be the zero address.\r\n     * - `spender` must have allowance for the caller of at least\r\n     * `subtractedValue`.\r\n     */\r\n    function decreaseAllowance(address spender, uint256 subtractedValue) public returns (bool) {\r\n        _approve(msg.sender, spender, _allowances[msg.sender][spender].sub(subtractedValue));\r\n        return true;\r\n    }\r\n\r\n    /**\r\n     * @dev Moves tokens `amount` from `sender` to `recipient`.\r\n     *\r\n     * This is internal function is equivalent to `transfer`, and can be used to\r\n     * e.g. implement automatic token fees, slashing mechanisms, etc.\r\n     *\r\n     * Emits a `Transfer` event.\r\n     *\r\n     * Requirements:\r\n     *\r\n     * - `sender` cannot be the zero address.\r\n     * - `recipient` cannot be the zero address.\r\n     * - `sender` must have a balance of at least `amount`.\r\n     */\r\n    function _transfer(address sender, address recipient, uint256 amount) internal {\r\n        require(msg.sender != address(0), \"ERC20: Invalid transfer from the zero address\");\r\n        require(recipient != address(0), \"ERC20: Invalid transfer to the zero address\");\r\n        require(amount > 0, \"ERC20: Invalid amount to transfer\");\r\n        require(_balances[sender] >= amount, \"ERC20: GGC Token fund is insufficient\");\r\n        uint256 txFee;\r\n\r\n        exemption storage e = exemptedAccts[sender];\r\n        if(e.exempted && e.value > 0)\r\n            txFee = computeTxFee(amount, e.value); // semi transfer fee exepmtion\r\n        else if (e.exempted)\r\n            txFee = computeTxFee(amount, 0); // full transfer fee exemption\r\n        else\r\n            txFee = computeTxFee(amount, fee); // regular transfer fee\r\n\r\n        _balances[sender] = _balances[sender].sub(amount);\r\n        _balances[recipient] = _balances[recipient].add(amount.sub(txFee));\r\n        emit Transfer(sender, recipient, amount.sub(txFee));\r\n\r\n        if(txFee > 0){\r\n            _balances[feeReceiver] = _balances[feeReceiver].add(txFee);\r\n            emit Transfer(sender, feeReceiver, txFee);\r\n        }\r\n    }\r\n\r\n    /** @dev Creates `amount` tokens and assigns them to `account`, increasing\r\n     * the total supply.\r\n     *\r\n     * Emits a `Transfer` event with `from` set to the zero address.\r\n     *\r\n     * Requirements\r\n     *\r\n     * - `to` cannot be the zero address.\r\n     */\r\n    function _mint(address account, uint256 amount) internal {\r\n        require(account != address(0), \"ERC20: mint to the zero address\");\r\n\r\n        _totalSupply = _totalSupply.add(amount);\r\n        _balances[account] = _balances[account].add(amount);\r\n        emit Transfer(address(0), account, amount);\r\n    }\r\n\r\n    /** @dev Creates `amount` tokens and assigns them to `account` and 'feeReceiver', increasing\r\n     * the total supply.\r\n     *\r\n     * Emits a `Transfer` event with `from` set to the zero address.\r\n     *\r\n     * Requirements\r\n     *\r\n     * - `to` cannot be the zero address.\r\n     */\r\n    function _mintWithFee(address account, uint256 amount, uint256 _mfee) internal {\r\n        require(account != address(0), \"ERC20: mint to the zero address\");\r\n\r\n        uint256 mintFee = computeMFee(amount, _mfee);\r\n\r\n        _totalSupply = _totalSupply.add(amount);\r\n        _balances[account] = _balances[account].add(amount.sub(mintFee)); //transfer clipped amount\r\n        _balances[feeReceiver] = _balances[feeReceiver].add(mintFee); //collects minting fee\r\n        emit Transfer(address(0), account, amount);\r\n    }\r\n\r\n    /** @dev If fee is zero, the regular transfer fee is disabled for the Exempted account.\r\n     *\r\n     * If fee is greater than zero, the assigned fee will be used.\r\n     *\r\n     * Exempt the user from regular transfer fee\r\n     */\r\n    function _exempt(address account, uint256 _fee) internal {\r\n        require(account != address(0), \"ERC20: Invalid address (0x0..)!\");\r\n        exemptedAccts[account] = exemption({exempted: true, value: _fee});\r\n        emit Exempted(account, _fee);\r\n    }\r\n\r\n    /** @dev removes fee exemption to user.\r\n     */\r\n    function _unExempt(address account) internal {\r\n        require(account != address(0), \"ERC20: mint to the zero address\");\r\n        delete exemptedAccts[account];\r\n        emit UnExempted(account);\r\n    }\r\n\r\n     /**\r\n     * @dev Destoys `amount` tokens from `account`, reducing the\r\n     * total supply.\r\n     *\r\n     * Emits a `Transfer` event with `to` set to the zero address.\r\n     *\r\n     * Requirements\r\n     *\r\n     * - `account` cannot be the zero address.\r\n     * - `account` must have at least `amount` tokens.\r\n     */\r\n    function _burn(address account, uint256 value) internal {\r\n        require(account != address(0), \"ERC20: burn from the zero address\");\r\n\r\n        _totalSupply = _totalSupply.sub(value);\r\n        _balances[account] = _balances[account].sub(value);\r\n        emit Transfer(account, address(0), value);\r\n    }\r\n\r\n    /**\r\n     * @dev Sets `amount` as the allowance of `spender` over the `owner`s tokens.\r\n     *\r\n     * This is internal function is equivalent to `approve`, and can be used to\r\n     * e.g. set automatic allowances for certain subsystems, etc.\r\n     *\r\n     * Emits an `Approval` event.\r\n     *\r\n     * Requirements:\r\n     *\r\n     * - `owner` cannot be the zero address.\r\n     * - `spender` cannot be the zero address.\r\n     */\r\n    function _approve(address owner, address spender, uint256 value) internal {\r\n        require(owner != address(0), \"ERC20: Invalid approve from the zero address\");\r\n        require(spender != address(0), \"ERC20: Invalid approve to the zero address\");\r\n\r\n        _allowances[owner][spender] = value;\r\n        emit Approval(owner, spender, value);\r\n    }\r\n\r\n    /**\r\n     * @dev Destoys `amount` tokens from `account`.`amount` is then deducted\r\n     * from the caller's allowance.\r\n     *\r\n     * See `_burn` and `_approve`.\r\n     */\r\n    function _burnFrom(address account, uint256 amount) internal {\r\n        _burn(account, amount);\r\n        _approve(account, msg.sender, _allowances[account][msg.sender].sub(amount));\r\n    }\r\n\r\n    /**\r\n     * @dev Update the `transfer` transaction fee\r\n     * _fee and _feeDecimals are in wei unit\r\n     */\r\n    function _setFee(uint256 _fee) internal returns(bool) {\r\n        fee = _fee;\r\n        return true;\r\n    }\r\n\r\n    /**\r\n     * @dev Transaction fee rate is available to public.\r\n     */\r\n    function getFee() public view returns(uint256){\r\n        return fee;\r\n    }\r\n\r\n    /**\r\n     * @dev Assigns new fee receiver.\r\n     * The fee receiver will collect all fees in every transaction as long as tx fee collection is enabled.\r\n     */\r\n    function _setFeeReceiver(address _feeReceiver) internal returns(bool) {\r\n        require(_feeReceiver != address(0), \"ERC20: Invalid fee receiver address\");\r\n        feeReceiver = _feeReceiver;\r\n        return true;\r\n    }\r\n\r\n    function _getFeeReceiver() internal view returns(address){\r\n        return feeReceiver;\r\n    }\r\n\r\n    /**\r\n     * @dev Computes the actual tx fee for front-end use.\r\n     */\r\n    function computeTxFee(uint256 amount, uint256 newFee) public view returns(uint256){\r\n        if(amount > 0 && newFee > 0 && feeDecimals > 0){\r\n            return amount.mul(newFee).div(feeDecimals);\r\n        }\r\n        return 0;\r\n    }\r\n\r\n    /**\r\n     * @dev Computes the actual minting fee for front-end use.\r\n     */\r\n    function computeMFee(uint256 amount, uint256 _mfee) public view returns(uint256){\r\n        if(amount > 0 && _mfee > 0 && feeDecimals > 0){\r\n            return amount.mul(_mfee).div(feeDecimals);\r\n        }\r\n        return 0;\r\n    }\r\n}\r\n/**\r\n * @title Burnable Token\r\n * @dev Token that can be irreversibly burned (destroyed).\r\n */\r\ncontract ERC20Burnable is Initializable, Context, ERC20 {\r\n    /**\r\n     * @dev Burns a specific amount of tokens.\r\n     * @param amount The amount of token to be burned.\r\n     */\r\n    function burn(uint256 amount) public {\r\n        _burn(_msgSender(), amount);\r\n    }\r\n\r\n    /**\r\n     * @dev Burns a specific amount of tokens from the target address and decrements allowance\r\n     * @param from address The account whose tokens will be burned.\r\n     * @param value uint256 The amount of token to be burned.\r\n     */\r\n    function burnFrom(address from, uint256 value) public {\r\n        _burnFrom(from, value);\r\n    }\r\n\r\n    uint256[50] private ______gap;\r\n}\r\n\r\ncontract MinterRole is Initializable, Context {\r\n    using Roles for Roles.Role;\r\n\r\n    event MinterAdded(address indexed account);\r\n    event MinterRemoved(address indexed account);\r\n\r\n    Roles.Role private _minters;\r\n\r\n    function initialize(address sender) public initializer {\r\n        if (!isMinter(sender)) {\r\n            _addMinter(sender);\r\n        }\r\n    }\r\n\r\n    modifier onlyMinter() {\r\n        require(isMinter(_msgSender()), \"MinterRole: caller does not have the Minter role\");\r\n        _;\r\n    }\r\n\r\n    function isMinter(address account) public view returns (bool) {\r\n        return _minters.has(account);\r\n    }\r\n\r\n    function addMinter(address account) public onlyMinter {\r\n        _addMinter(account);\r\n    }\r\n\r\n    function renounceMinter() public {\r\n        _removeMinter(_msgSender());\r\n    }\r\n\r\n    function _addMinter(address account) internal {\r\n        _minters.add(account);\r\n        emit MinterAdded(account);\r\n    }\r\n\r\n    function _removeMinter(address account) internal {\r\n        _minters.remove(account);\r\n        emit MinterRemoved(account);\r\n    }\r\n\r\n    uint256[50] private ______gap;\r\n}\r\n/**\r\n * @dev Extension of `ERC20` that adds a set of accounts with the `MinterRole`,\r\n * which have permission to mint (create) new tokens as they see fit.\r\n *\r\n * At construction, the deployer of the contract is the only minter.\r\n */\r\ncontract ERC20Chargeable is Initializable, ERC20, MinterRole {\r\n\r\n    function initialize(address sender) public initializer {\r\n        MinterRole.initialize(sender);\r\n    }\r\n\r\n    /**\r\n     * @dev See `ERC20._setFee`.\r\n     *\r\n     * Requirements:\r\n     *\r\n     * - the caller must have the `MinterRole`.\r\n     */\r\n    function setFee(uint256 fee) public onlyMinter returns (bool) {\r\n        return _setFee(fee);\r\n    }\r\n\r\n    /**\r\n     * @dev See `ERC20._setFeeReceiver`.\r\n     *\r\n     * Requirements:\r\n     *\r\n     * - the caller must have the `MinterRole`.\r\n     */\r\n    function setFeeReceiver(address _feeReceiver) public onlyMinter returns (bool){\r\n        return _setFeeReceiver(_feeReceiver);\r\n    }\r\n\r\n    /**\r\n     * @dev See `ERC20._getFeeReceiver`.\r\n     *\r\n     * Requirements:\r\n     *\r\n     * - the caller must have the `MinterRole`.\r\n     */\r\n    function getFeeReceiver() public onlyMinter view returns (address){\r\n        return _getFeeReceiver();\r\n    }\r\n\r\n    /**\r\n     * @dev Function to mint tokens\r\n     * @param to The address that will receive the minted tokens.\r\n     * @param value The amount of tokens to mint.\r\n     * @return A boolean that indicates if the operation was successful.\r\n     */\r\n    function mintWithFee(address to, uint256 value, uint mfee) public onlyMinter returns (bool) {\r\n\r\n        _mintWithFee(to, value, mfee);\r\n        return true;\r\n    }\r\n\r\n    function exempt(address account, uint256 _fee) public onlyMinter returns (bool){\r\n        _exempt(account, _fee);\r\n        return true;\r\n    }\r\n\r\n    function unExempt(address account) public onlyMinter returns (bool){\r\n        _unExempt(account);\r\n        return true;\r\n    }\r\n}\r\n\r\n/**\r\n * @title ERC20Detailed token\r\n * @dev The decimals are only for visualization purposes.\r\n * All the operations are done using the smallest and indivisible token unit,\r\n * just as on Ethereum all the operations are done in wei.\r\n */\r\ncontract ERC20Detailed is Initializable, IERC20 {\r\n    string private _name;\r\n    string private _symbol;\r\n    uint8 private _decimals;\r\n\r\n    function initialize(string memory name, string memory symbol, uint8 decimals) public initializer {\r\n        _name = name;\r\n        _symbol = symbol;\r\n        _decimals = decimals;\r\n    }\r\n\r\n    /**\r\n     * @return the name of the token.\r\n     */\r\n    function name() public view returns (string memory) {\r\n        return _name;\r\n    }\r\n\r\n    /**\r\n     * @return the symbol of the token.\r\n     */\r\n    function symbol() public view returns (string memory) {\r\n        return _symbol;\r\n    }\r\n\r\n    /**\r\n     * @return the number of decimals of the token.\r\n     */\r\n    function decimals() public view returns (uint8) {\r\n        return _decimals;\r\n    }\r\n\r\n    uint256[50] private ______gap;\r\n}\r\n\r\n/**\r\n * @title ERC20Mintable\r\n * @dev ERC20 minting logic\r\n */\r\ncontract ERC20Mintable is Initializable, ERC20, MinterRole {\r\n    function initialize(address sender) public initializer {\r\n        MinterRole.initialize(sender);\r\n    }\r\n\r\n    /**\r\n     * @dev Function to mint tokens\r\n     * @param to The address that will receive the minted tokens.\r\n     * @param value The amount of tokens to mint.\r\n     * @return A boolean that indicates if the operation was successful.\r\n     */\r\n    function mint(address to, uint256 value) public onlyMinter returns (bool) {\r\n        _mint(to, value);\r\n        return true;\r\n    }\r\n\r\n    uint256[50] private ______gap;\r\n}\r\n\r\ncontract PauserRole is Initializable, Context {\r\n    using Roles for Roles.Role;\r\n\r\n    event PauserAdded(address indexed account);\r\n    event PauserRemoved(address indexed account);\r\n\r\n    Roles.Role private _pausers;\r\n\r\n    function initialize(address sender) public initializer {\r\n        if (!isPauser(sender)) {\r\n            _addPauser(sender);\r\n        }\r\n    }\r\n\r\n    modifier onlyPauser() {\r\n        require(isPauser(_msgSender()), \"PauserRole: caller does not have the Pauser role\");\r\n        _;\r\n    }\r\n\r\n    function isPauser(address account) public view returns (bool) {\r\n        return _pausers.has(account);\r\n    }\r\n\r\n    function addPauser(address account) public onlyPauser {\r\n        _addPauser(account);\r\n    }\r\n\r\n    function renouncePauser() public {\r\n        _removePauser(_msgSender());\r\n    }\r\n\r\n    function _addPauser(address account) internal {\r\n        _pausers.add(account);\r\n        emit PauserAdded(account);\r\n    }\r\n\r\n    function _removePauser(address account) internal {\r\n        _pausers.remove(account);\r\n        emit PauserRemoved(account);\r\n    }\r\n\r\n    uint256[50] private ______gap;\r\n}\r\n/**\r\n * @title Pausable\r\n * @dev Base contract which allows children to implement an emergency stop mechanism.\r\n */\r\ncontract Pausable is Initializable, Context, PauserRole {\r\n    event Paused(address account);\r\n    event Unpaused(address account);\r\n\r\n    bool private _paused;\r\n\r\n    function initialize(address sender) public initializer {\r\n        PauserRole.initialize(sender);\r\n\r\n        _paused = false;\r\n    }\r\n\r\n    /**\r\n     * @return true if the contract is paused, false otherwise.\r\n     */\r\n    function paused() public view returns (bool) {\r\n        return _paused;\r\n    }\r\n\r\n    /**\r\n     * @dev Modifier to make a function callable only when the contract is not paused.\r\n     */\r\n    modifier whenNotPaused() {\r\n        require(!_paused, \"Pausable: paused\");\r\n        _;\r\n    }\r\n\r\n    /**\r\n     * @dev Modifier to make a function callable only when the contract is paused.\r\n     */\r\n    modifier whenPaused() {\r\n        require(_paused, \"Pausable: not paused\");\r\n        _;\r\n    }\r\n\r\n    /**\r\n     * @dev called by the owner to pause, triggers stopped state\r\n     */\r\n    function pause() public onlyPauser whenNotPaused {\r\n        _paused = true;\r\n        emit Paused(_msgSender());\r\n    }\r\n\r\n    /**\r\n     * @dev called by the owner to unpause, returns to normal state\r\n     */\r\n    function unpause() public onlyPauser whenPaused {\r\n        _paused = false;\r\n        emit Unpaused(_msgSender());\r\n    }\r\n\r\n    uint256[50] private ______gap;\r\n}\r\n/**\r\n * @title Pausable token\r\n * @dev ERC20 modified with pausable transfers.\r\n */\r\ncontract ERC20Pausable is Initializable, ERC20, Pausable {\r\n    function initialize(address sender) public initializer {\r\n        Pausable.initialize(sender);\r\n    }\r\n\r\n    function transfer(address to, uint256 value) public whenNotPaused returns (bool) {\r\n        return super.transfer(to, value);\r\n    }\r\n\r\n    function transferFrom(address from, address to, uint256 value) public whenNotPaused returns (bool) {\r\n        return super.transferFrom(from, to, value);\r\n    }\r\n\r\n    function approve(address spender, uint256 value) public whenNotPaused returns (bool) {\r\n        return super.approve(spender, value);\r\n    }\r\n\r\n    function increaseAllowance(address spender, uint addedValue) public whenNotPaused returns (bool success) {\r\n        return super.increaseAllowance(spender, addedValue);\r\n    }\r\n\r\n    function decreaseAllowance(address spender, uint subtractedValue) public whenNotPaused returns (bool success) {\r\n        return super.decreaseAllowance(spender, subtractedValue);\r\n    }\r\n\r\n    uint256[50] private ______gap;\r\n}\r\n\r\n\r\n\r\n/**\r\n * @title Roles\r\n * @dev Library for managing addresses assigned to a Role.\r\n */\r\nlibrary Roles {\r\n    struct Role {\r\n        mapping (address => bool) bearer;\r\n    }\r\n\r\n    /**\r\n     * @dev give an account access to this role\r\n     */\r\n    function add(Role storage role, address account) internal {\r\n        require(account != address(0), \"Roles: Invalid zero address\");\r\n        require(!has(role, account), \"Roles: Invalid zero address\");\r\n\r\n        role.bearer[account] = true;\r\n    }\r\n\r\n    /**\r\n     * @dev remove an account's access to this role\r\n     */\r\n    function remove(Role storage role, address account) internal {\r\n        require(account != address(0), \"Roles: Invalid zero address\");\r\n        require(has(role, account), \"Roles: Removing of role failed\");\r\n\r\n        role.bearer[account] = false;\r\n    }\r\n\r\n    /**\r\n     * @dev check if an account has this role\r\n     * @return bool\r\n     */\r\n    function has(Role storage role, address account) internal view returns (bool) {\r\n        require(account != address(0), \"Roles: Invalid zero address\");\r\n        return role.bearer[account];\r\n    }\r\n}\r\n\r\n/**\r\n * @title SafeMath\r\n * @dev Unsigned math operations with safety checks that revert on error\r\n */\r\nlibrary SafeMath {\r\n    /**\r\n     * @dev Multiplies two unsigned integers, reverts on overflow.\r\n     */\r\n    function mul(uint256 a, uint256 b) internal pure returns (uint256) {\r\n        // Gas optimization: this is cheaper than requiring 'a' not being zero, but the\r\n        // benefit is lost if 'b' is also tested.\r\n        // See: https://github.com/OpenZeppelin/openzeppelin-solidity/pull/522\r\n        if (a == 0) {\r\n            return 0;\r\n        }\r\n\r\n        uint256 c = a * b;\r\n        require(c / a == b);\r\n\r\n        return c;\r\n    }\r\n\r\n    /**\r\n     * @dev Integer division of two unsigned integers truncating the quotient, reverts on division by zero.\r\n     */\r\n    function div(uint256 a, uint256 b) internal pure returns (uint256) {\r\n        // Solidity only automatically asserts when dividing by 0\r\n        require(b > 0);\r\n        uint256 c = a / b;\r\n        // assert(a == b * c + a % b); // There is no case in which this doesn't hold\r\n\r\n        return c;\r\n    }\r\n\r\n    /**\r\n     * @dev Subtracts two unsigned integers, reverts on overflow (i.e. if subtrahend is greater than minuend).\r\n     */\r\n    function sub(uint256 a, uint256 b) internal pure returns (uint256) {\r\n        require(b <= a);\r\n        uint256 c = a - b;\r\n\r\n        return c;\r\n    }\r\n\r\n    /**\r\n     * @dev Adds two unsigned integers, reverts on overflow.\r\n     */\r\n    function add(uint256 a, uint256 b) internal pure returns (uint256) {\r\n        uint256 c = a + b;\r\n        require(c >= a);\r\n\r\n        return c;\r\n    }\r\n\r\n    /**\r\n     * @dev Divides two unsigned integers and returns the remainder (unsigned integer modulo),\r\n     * reverts when dividing by zero.\r\n     */\r\n    function mod(uint256 a, uint256 b) internal pure returns (uint256) {\r\n        require(b != 0);\r\n        return a % b;\r\n    }\r\n}\r\n\r\n/**\r\n * @title WhitelistAdminRole\r\n * @dev WhitelistAdmins are responsible for assigning and removing Whitelisted accounts.\r\n */\r\ncontract WhitelistAdminRole is Initializable, Context {\r\n    using Roles for Roles.Role;\r\n\r\n    event WhitelistAdminAdded(address indexed account);\r\n    event WhitelistAdminRemoved(address indexed account);\r\n\r\n    Roles.Role private _whitelistAdmins;\r\n\r\n    function initialize(address sender) public initializer {\r\n        if (!isWhitelistAdmin(sender)) {\r\n            _addWhitelistAdmin(sender);\r\n        }\r\n    }\r\n\r\n    modifier onlyWhitelistAdmin() {\r\n        require(isWhitelistAdmin(_msgSender()), \"WhitelistAdminRole: caller does not have the WhitelistAdmin role\");\r\n        _;\r\n    }\r\n\r\n    function isWhitelistAdmin(address account) public view returns (bool) {\r\n        return _whitelistAdmins.has(account);\r\n    }\r\n\r\n    function addWhitelistAdmin(address account) public onlyWhitelistAdmin {\r\n        _addWhitelistAdmin(account);\r\n    }\r\n\r\n    function renounceWhitelistAdmin() public {\r\n        _removeWhitelistAdmin(_msgSender());\r\n    }\r\n\r\n    function _addWhitelistAdmin(address account) internal {\r\n        _whitelistAdmins.add(account);\r\n        emit WhitelistAdminAdded(account);\r\n    }\r\n\r\n    function _removeWhitelistAdmin(address account) internal {\r\n        _whitelistAdmins.remove(account);\r\n        emit WhitelistAdminRemoved(account);\r\n    }\r\n\r\n    uint256[50] private ______gap;\r\n}\r\n\r\n/**\r\n * @title WhitelistedRole\r\n * @dev Whitelisted accounts have been approved by a WhitelistAdmin to perform certain actions (e.g. participate in a\r\n * crowdsale). This role is special in that the only accounts that can add it are WhitelistAdmins (who can also remove\r\n * it), and not Whitelisteds themselves.\r\n */\r\ncontract WhitelistedRole is Initializable, Context, WhitelistAdminRole {\r\n    using Roles for Roles.Role;\r\n\r\n    event WhitelistedAdded(address indexed account);\r\n    event WhitelistedRemoved(address indexed account);\r\n\r\n    Roles.Role private _whitelisteds;\r\n\r\n    modifier onlyWhitelisted() {\r\n        require(isWhitelisted(_msgSender()), \"WhitelistedRole: caller does not have the Whitelisted role\");\r\n        _;\r\n    }\r\n\r\n    function initialize(address sender) public initializer {\r\n        WhitelistAdminRole.initialize(sender);\r\n    }\r\n\r\n    function isWhitelisted(address account) public view returns (bool) {\r\n        return _whitelisteds.has(account);\r\n    }\r\n\r\n    function addWhitelisted(address account) public onlyWhitelistAdmin {\r\n        _addWhitelisted(account);\r\n    }\r\n\r\n    function removeWhitelisted(address account) public onlyWhitelistAdmin {\r\n        _removeWhitelisted(account);\r\n    }\r\n\r\n    function renounceWhitelisted() public {\r\n        _removeWhitelisted(_msgSender());\r\n    }\r\n\r\n    function _addWhitelisted(address account) internal {\r\n        _whitelisteds.add(account);\r\n        emit WhitelistedAdded(account);\r\n    }\r\n\r\n    function _removeWhitelisted(address account) internal {\r\n        _whitelisteds.remove(account);\r\n        emit WhitelistedRemoved(account);\r\n    }\r\n\r\n    uint256[50] private ______gap;\r\n}\r\ncontract GGCToken is Initializable, ERC20, ERC20Chargeable, ERC20Mintable, ERC20Burnable, ERC20Pausable, ERC20Detailed {\r\n    function initialize(\r\n        address sender,\r\n        string memory name,\r\n        string memory symbol,\r\n        uint8 decimals,\r\n        address feeReceiver,\r\n        uint256 fee\r\n        ) public initializer {\r\n        ERC20Mintable.initialize(sender);\r\n        ERC20Pausable.initialize(sender);\r\n        ERC20Chargeable.initialize(sender);\r\n        ERC20Detailed.initialize(name, symbol, decimals);\r\n        ERC20.initialize(feeReceiver, fee);\r\n    }\r\n}",
  "sourcePath": "contracts\\GGCTokenBundled.sol",
  "abi": [
    {
      "constant": false,
      "inputs": [
        {
          "internalType": "address",
          "name": "to",
          "type": "address"
        },
        {
          "internalType": "uint256",
          "name": "value",
          "type": "uint256"
        },
        {
          "internalType": "uint256",
          "name": "mfee",
          "type": "uint256"
        }
      ],
      "name": "mintWithFee",
      "outputs": [
        {
          "internalType": "bool",
          "name": "",
          "type": "bool"
        }
      ],
      "payable": false,
      "stateMutability": "nonpayable",
      "type": "function"
    },
    {
      "constant": true,
      "inputs": [],
      "name": "name",
      "outputs": [
        {
          "internalType": "string",
          "name": "",
          "type": "string"
        }
      ],
      "payable": false,
      "stateMutability": "view",
      "type": "function"
    },
    {
      "constant": false,
      "inputs": [
        {
          "internalType": "address",
          "name": "spender",
          "type": "address"
        },
        {
          "internalType": "uint256",
          "name": "value",
          "type": "uint256"
        }
      ],
      "name": "approve",
      "outputs": [
        {
          "internalType": "bool",
          "name": "",
          "type": "bool"
        }
      ],
      "payable": false,
      "stateMutability": "nonpayable",
      "type": "function"
    },
    {
      "constant": true,
      "inputs": [
        {
          "internalType": "uint256",
          "name": "amount",
          "type": "uint256"
        },
        {
          "internalType": "uint256",
          "name": "newFee",
          "type": "uint256"
        }
      ],
      "name": "computeTxFee",
      "outputs": [
        {
          "internalType": "uint256",
          "name": "",
          "type": "uint256"
        }
      ],
      "payable": false,
      "stateMutability": "view",
      "type": "function"
    },
    {
      "constant": true,
      "inputs": [
        {
          "internalType": "uint256",
          "name": "amount",
          "type": "uint256"
        },
        {
          "internalType": "uint256",
          "name": "_mfee",
          "type": "uint256"
        }
      ],
      "name": "computeMFee",
      "outputs": [
        {
          "internalType": "uint256",
          "name": "",
          "type": "uint256"
        }
      ],
      "payable": false,
      "stateMutability": "view",
      "type": "function"
    },
    {
      "constant": false,
      "inputs": [
        {
          "internalType": "string",
          "name": "name",
          "type": "string"
        },
        {
          "internalType": "string",
          "name": "symbol",
          "type": "string"
        },
        {
          "internalType": "uint8",
          "name": "decimals",
          "type": "uint8"
        }
      ],
      "name": "initialize",
      "outputs": [],
      "payable": false,
      "stateMutability": "nonpayable",
      "type": "function"
    },
    {
      "constant": true,
      "inputs": [],
      "name": "totalSupply",
      "outputs": [
        {
          "internalType": "uint256",
          "name": "",
          "type": "uint256"
        }
      ],
      "payable": false,
      "stateMutability": "view",
      "type": "function"
    },
    {
      "constant": false,
      "inputs": [
        {
          "internalType": "address",
          "name": "from",
          "type": "address"
        },
        {
          "internalType": "address",
          "name": "to",
          "type": "address"
        },
        {
          "internalType": "uint256",
          "name": "value",
          "type": "uint256"
        }
      ],
      "name": "transferFrom",
      "outputs": [
        {
          "internalType": "bool",
          "name": "",
          "type": "bool"
        }
      ],
      "payable": false,
      "stateMutability": "nonpayable",
      "type": "function"
    },
    {
      "constant": true,
      "inputs": [],
      "name": "decimals",
      "outputs": [
        {
          "internalType": "uint8",
          "name": "",
          "type": "uint8"
        }
      ],
      "payable": false,
      "stateMutability": "view",
      "type": "function"
    },
    {
      "constant": false,
      "inputs": [
        {
          "internalType": "address",
          "name": "spender",
          "type": "address"
        },
        {
          "internalType": "uint256",
          "name": "addedValue",
          "type": "uint256"
        }
      ],
      "name": "increaseAllowance",
      "outputs": [
        {
          "internalType": "bool",
          "name": "success",
          "type": "bool"
        }
      ],
      "payable": false,
      "stateMutability": "nonpayable",
      "type": "function"
    },
    {
      "constant": false,
      "inputs": [],
      "name": "unpause",
      "outputs": [],
      "payable": false,
      "stateMutability": "nonpayable",
      "type": "function"
    },
    {
      "constant": false,
      "inputs": [
        {
          "internalType": "address",
          "name": "to",
          "type": "address"
        },
        {
          "internalType": "uint256",
          "name": "value",
          "type": "uint256"
        }
      ],
      "name": "mint",
      "outputs": [
        {
          "internalType": "bool",
          "name": "",
          "type": "bool"
        }
      ],
      "payable": false,
      "stateMutability": "nonpayable",
      "type": "function"
    },
    {
      "constant": false,
      "inputs": [
        {
          "internalType": "uint256",
          "name": "amount",
          "type": "uint256"
        }
      ],
      "name": "burn",
      "outputs": [],
      "payable": false,
      "stateMutability": "nonpayable",
      "type": "function"
    },
    {
      "constant": true,
      "inputs": [
        {
          "internalType": "address",
          "name": "account",
          "type": "address"
        }
      ],
      "name": "isPauser",
      "outputs": [
        {
          "internalType": "bool",
          "name": "",
          "type": "bool"
        }
      ],
      "payable": false,
      "stateMutability": "view",
      "type": "function"
    },
    {
      "constant": true,
      "inputs": [],
      "name": "paused",
      "outputs": [
        {
          "internalType": "bool",
          "name": "",
          "type": "bool"
        }
      ],
      "payable": false,
      "stateMutability": "view",
      "type": "function"
    },
    {
      "constant": false,
      "inputs": [
        {
          "internalType": "address",
          "name": "account",
          "type": "address"
        },
        {
          "internalType": "uint256",
          "name": "_fee",
          "type": "uint256"
        }
      ],
      "name": "exempt",
      "outputs": [
        {
          "internalType": "bool",
          "name": "",
          "type": "bool"
        }
      ],
      "payable": false,
      "stateMutability": "nonpayable",
      "type": "function"
    },
    {
      "constant": false,
      "inputs": [
        {
          "internalType": "address",
          "name": "account",
          "type": "address"
        }
      ],
      "name": "unExempt",
      "outputs": [
        {
          "internalType": "bool",
          "name": "",
          "type": "bool"
        }
      ],
      "payable": false,
      "stateMutability": "nonpayable",
      "type": "function"
    },
    {
      "constant": false,
      "inputs": [
        {
          "internalType": "uint256",
          "name": "fee",
          "type": "uint256"
        }
      ],
      "name": "setFee",
      "outputs": [
        {
          "internalType": "bool",
          "name": "",
          "type": "bool"
        }
      ],
      "payable": false,
      "stateMutability": "nonpayable",
      "type": "function"
    },
    {
      "constant": false,
      "inputs": [],
      "name": "renouncePauser",
      "outputs": [],
      "payable": false,
      "stateMutability": "nonpayable",
      "type": "function"
    },
    {
      "constant": true,
      "inputs": [
        {
          "internalType": "address",
          "name": "account",
          "type": "address"
        }
      ],
      "name": "balanceOf",
      "outputs": [
        {
          "internalType": "uint256",
          "name": "",
          "type": "uint256"
        }
      ],
      "payable": false,
      "stateMutability": "view",
      "type": "function"
    },
    {
      "constant": false,
      "inputs": [
        {
          "internalType": "address",
          "name": "from",
          "type": "address"
        },
        {
          "internalType": "uint256",
          "name": "value",
          "type": "uint256"
        }
      ],
      "name": "burnFrom",
      "outputs": [],
      "payable": false,
      "stateMutability": "nonpayable",
      "type": "function"
    },
    {
      "constant": false,
      "inputs": [
        {
          "internalType": "address",
          "name": "account",
          "type": "address"
        }
      ],
      "name": "addPauser",
      "outputs": [],
      "payable": false,
      "stateMutability": "nonpayable",
      "type": "function"
    },
    {
      "constant": false,
      "inputs": [],
      "name": "pause",
      "outputs": [],
      "payable": false,
      "stateMutability": "nonpayable",
      "type": "function"
    },
    {
      "constant": true,
      "inputs": [],
      "name": "symbol",
      "outputs": [
        {
          "internalType": "string",
          "name": "",
          "type": "string"
        }
      ],
      "payable": false,
      "stateMutability": "view",
      "type": "function"
    },
    {
      "constant": false,
      "inputs": [
        {
          "internalType": "address",
          "name": "sender",
          "type": "address"
        },
        {
          "internalType": "string",
          "name": "name",
          "type": "string"
        },
        {
          "internalType": "string",
          "name": "symbol",
          "type": "string"
        },
        {
          "internalType": "uint8",
          "name": "decimals",
          "type": "uint8"
        },
        {
          "internalType": "address",
          "name": "feeReceiver",
          "type": "address"
        },
        {
          "internalType": "uint256",
          "name": "fee",
          "type": "uint256"
        }
      ],
      "name": "initialize",
      "outputs": [],
      "payable": false,
      "stateMutability": "nonpayable",
      "type": "function"
    },
    {
      "constant": false,
      "inputs": [
        {
          "internalType": "address",
          "name": "account",
          "type": "address"
        }
      ],
      "name": "addMinter",
      "outputs": [],
      "payable": false,
      "stateMutability": "nonpayable",
      "type": "function"
    },
    {
      "constant": false,
      "inputs": [],
      "name": "renounceMinter",
      "outputs": [],
      "payable": false,
      "stateMutability": "nonpayable",
      "type": "function"
    },
    {
      "constant": false,
      "inputs": [
        {
          "internalType": "address",
          "name": "spender",
          "type": "address"
        },
        {
          "internalType": "uint256",
          "name": "subtractedValue",
          "type": "uint256"
        }
      ],
      "name": "decreaseAllowance",
      "outputs": [
        {
          "internalType": "bool",
          "name": "success",
          "type": "bool"
        }
      ],
      "payable": false,
      "stateMutability": "nonpayable",
      "type": "function"
    },
    {
      "constant": false,
      "inputs": [
        {
          "internalType": "address",
          "name": "to",
          "type": "address"
        },
        {
          "internalType": "uint256",
          "name": "value",
          "type": "uint256"
        }
      ],
      "name": "transfer",
      "outputs": [
        {
          "internalType": "bool",
          "name": "",
          "type": "bool"
        }
      ],
      "payable": false,
      "stateMutability": "nonpayable",
      "type": "function"
    },
    {
      "constant": true,
      "inputs": [
        {
          "internalType": "address",
          "name": "account",
          "type": "address"
        }
      ],
      "name": "isMinter",
      "outputs": [
        {
          "internalType": "bool",
          "name": "",
          "type": "bool"
        }
      ],
      "payable": false,
      "stateMutability": "view",
      "type": "function"
    },
    {
      "constant": false,
      "inputs": [
        {
          "internalType": "address",
          "name": "sender",
          "type": "address"
        }
      ],
      "name": "initialize",
      "outputs": [],
      "payable": false,
      "stateMutability": "nonpayable",
      "type": "function"
    },
    {
      "constant": false,
      "inputs": [
        {
          "internalType": "address",
          "name": "_feeReceiver",
          "type": "address"
        },
        {
          "internalType": "uint256",
          "name": "_fee",
          "type": "uint256"
        }
      ],
      "name": "initialize",
      "outputs": [],
      "payable": false,
      "stateMutability": "nonpayable",
      "type": "function"
    },
    {
      "constant": true,
      "inputs": [],
      "name": "getFee",
      "outputs": [
        {
          "internalType": "uint256",
          "name": "",
          "type": "uint256"
        }
      ],
      "payable": false,
      "stateMutability": "view",
      "type": "function"
    },
    {
      "constant": true,
      "inputs": [
        {
          "internalType": "address",
          "name": "owner",
          "type": "address"
        },
        {
          "internalType": "address",
          "name": "spender",
          "type": "address"
        }
      ],
      "name": "allowance",
      "outputs": [
        {
          "internalType": "uint256",
          "name": "",
          "type": "uint256"
        }
      ],
      "payable": false,
      "stateMutability": "view",
      "type": "function"
    },
    {
      "constant": true,
      "inputs": [],
      "name": "getFeeReceiver",
      "outputs": [
        {
          "internalType": "address",
          "name": "",
          "type": "address"
        }
      ],
      "payable": false,
      "stateMutability": "view",
      "type": "function"
    },
    {
      "constant": false,
      "inputs": [
        {
          "internalType": "address",
          "name": "_feeReceiver",
          "type": "address"
        }
      ],
      "name": "setFeeReceiver",
      "outputs": [
        {
          "internalType": "bool",
          "name": "",
          "type": "bool"
        }
      ],
      "payable": false,
      "stateMutability": "nonpayable",
      "type": "function"
    },
    {
      "anonymous": false,
      "inputs": [
        {
          "indexed": false,
          "internalType": "address",
          "name": "account",
          "type": "address"
        }
      ],
      "name": "Paused",
      "type": "event"
    },
    {
      "anonymous": false,
      "inputs": [
        {
          "indexed": false,
          "internalType": "address",
          "name": "account",
          "type": "address"
        }
      ],
      "name": "Unpaused",
      "type": "event"
    },
    {
      "anonymous": false,
      "inputs": [
        {
          "indexed": true,
          "internalType": "address",
          "name": "account",
          "type": "address"
        }
      ],
      "name": "PauserAdded",
      "type": "event"
    },
    {
      "anonymous": false,
      "inputs": [
        {
          "indexed": true,
          "internalType": "address",
          "name": "account",
          "type": "address"
        }
      ],
      "name": "PauserRemoved",
      "type": "event"
    },
    {
      "anonymous": false,
      "inputs": [
        {
          "indexed": true,
          "internalType": "address",
          "name": "account",
          "type": "address"
        }
      ],
      "name": "MinterAdded",
      "type": "event"
    },
    {
      "anonymous": false,
      "inputs": [
        {
          "indexed": true,
          "internalType": "address",
          "name": "account",
          "type": "address"
        }
      ],
      "name": "MinterRemoved",
      "type": "event"
    },
    {
      "anonymous": false,
      "inputs": [
        {
          "indexed": true,
          "internalType": "address",
          "name": "from",
          "type": "address"
        },
        {
          "indexed": true,
          "internalType": "address",
          "name": "to",
          "type": "address"
        },
        {
          "indexed": false,
          "internalType": "uint256",
          "name": "value",
          "type": "uint256"
        }
      ],
      "name": "Transfer",
      "type": "event"
    },
    {
      "anonymous": false,
      "inputs": [
        {
          "indexed": true,
          "internalType": "address",
          "name": "owner",
          "type": "address"
        },
        {
          "indexed": true,
          "internalType": "address",
          "name": "spender",
          "type": "address"
        },
        {
          "indexed": false,
          "internalType": "uint256",
          "name": "value",
          "type": "uint256"
        }
      ],
      "name": "Approval",
      "type": "event"
    },
    {
      "anonymous": false,
      "inputs": [
        {
          "indexed": false,
          "internalType": "address",
          "name": "account",
          "type": "address"
        },
        {
          "indexed": false,
          "internalType": "uint256",
          "name": "value",
          "type": "uint256"
        }
      ],
      "name": "Exempted",
      "type": "event"
    },
    {
      "anonymous": false,
      "inputs": [
        {
          "indexed": false,
          "internalType": "address",
          "name": "account",
          "type": "address"
        }
      ],
      "name": "UnExempted",
      "type": "event"
    }
  ],
  "bytecode": "0x60806040523480156100115760006000fd5b50610017565b6149b480620000276000396000f3fe60806040523480156100115760006000fd5b50600436106102205760003560e01c80636ef8d66d11610126578063a457c2d7116100ae578063cd6dc6871161007d578063cd6dc68714610de0578063ced72f8714610e2f578063dd62ed3e14610e4d578063e8a3539214610ec6578063efdcd97414610f1057610220565b8063a457c2d714610c70578063a9059cbb14610cd7578063aa271e1a14610d3e578063c4d66de814610d9b57610220565b80638456cb59116100f55780638456cb59146109db57806395d89b41146109e5578063966dfcab14610a69578063983b2d5614610c215780639865027514610c6657610220565b80636ef8d66d146108e457806370a08231146108ee57806379cc67901461094757806382dc1ec41461099657610220565b806339509351116101a957806346fbf68e1161017857806346fbf68e1461075a5780635c975abb146107b757806362986791146107d957806369119da51461084057806369fe0e2d1461089d57610220565b806339509351146106535780633f4ba83a146106ba57806340c10f19146106c457806342966c681461072b57610220565b80631296349c116101f05780631296349c146103cf5780631624f6c61461041c57806318160ddd1461058a57806323b872dd146105a8578063313ce5671461062f57610220565b8062663ee91461022657806306fdde0314610297578063095ea7b31461031b5780630ab0f04d1461038257610220565b60006000fd5b61027d6004803603606081101561023d5760006000fd5b81019080803573ffffffffffffffffffffffffffffffffffffffff1690602001909291908035906020019092919080359060200190929190505050610f6d565b604051808215151515815260200191505060405180910390f35b61029f611004565b6040518080602001828103825283818151815260200191508051906020019080838360005b838110156102e05780820151818401525b6020810190506102c4565b50505050905090810190601f16801561030d5780820380516001836020036101000a031916815260200191505b509250505060405180910390f35b610368600480360360408110156103325760006000fd5b81019080803573ffffffffffffffffffffffffffffffffffffffff169060200190929190803590602001909291905050506110af565b604051808215151515815260200191505060405180910390f35b6103b9600480360360408110156103995760006000fd5b810190808035906020019092919080359060200190929190505050611158565b6040518082815260200191505060405180910390f35b610406600480360360408110156103e65760006000fd5b8101908080359060200190929190803590602001909291905050506111c0565b6040518082815260200191505060405180910390f35b610588600480360360608110156104335760006000fd5b81019080803590602001906401000000008111156104515760006000fd5b8201836020820111156104645760006000fd5b803590602001918460018302840111640100000000831117156104875760006000fd5b91908080601f016020809104026020016040519081016040528093929190818152602001838380828437600081840152601f19601f82011690508083019250505050505050909091929090919290803590602001906401000000008111156104ef5760006000fd5b8201836020820111156105025760006000fd5b803590602001918460018302840111640100000000831117156105255760006000fd5b91908080601f016020809104026020016040519081016040528093929190818152602001838380828437600081840152601f19601f82011690508083019250505050505050909091929090919290803560ff169060200190929190505050611228565b005b61059261138a565b6040518082815260200191505060405180910390f35b610615600480360360608110156105bf5760006000fd5b81019080803573ffffffffffffffffffffffffffffffffffffffff169060200190929190803573ffffffffffffffffffffffffffffffffffffffff1690602001909291908035906020019092919050505061139c565b604051808215151515815260200191505060405180910390f35b610637611447565b604051808260ff1660ff16815260200191505060405180910390f35b6106a06004803603604081101561066a5760006000fd5b81019080803573ffffffffffffffffffffffffffffffffffffffff16906020019092919080359060200190929190505050611464565b604051808215151515815260200191505060405180910390f35b6106c261150d565b005b610711600480360360408110156106db5760006000fd5b81019080803573ffffffffffffffffffffffffffffffffffffffff16906020019092919080359060200190929190505050611699565b604051808215151515815260200191505060405180910390f35b610758600480360360208110156107425760006000fd5b810190808035906020019092919050505061172e565b005b61079d600480360360208110156107715760006000fd5b81019080803573ffffffffffffffffffffffffffffffffffffffff16906020019092919050505061174f565b604051808215151515815260200191505060405180910390f35b6107bf611774565b604051808215151515815260200191505060405180910390f35b610826600480360360408110156107f05760006000fd5b81019080803573ffffffffffffffffffffffffffffffffffffffff16906020019092919080359060200190929190505050611791565b604051808215151515815260200191505060405180910390f35b610883600480360360208110156108575760006000fd5b81019080803573ffffffffffffffffffffffffffffffffffffffff169060200190929190505050611826565b604051808215151515815260200191505060405180910390f35b6108ca600480360360208110156108b45760006000fd5b81019080803590602001909291905050506118b9565b604051808215151515815260200191505060405180910390f35b6108ec61194a565b005b610931600480360360208110156109055760006000fd5b81019080803573ffffffffffffffffffffffffffffffffffffffff169060200190929190505050611969565b6040518082815260200191505060405180910390f35b6109946004803603604081101561095e5760006000fd5b81019080803573ffffffffffffffffffffffffffffffffffffffff169060200190929190803590602001909291905050506119bd565b005b6109d9600480360360208110156109ad5760006000fd5b81019080803573ffffffffffffffffffffffffffffffffffffffff1690602001909291905050506119d2565b005b6109e3611a59565b005b6109ed611be6565b6040518080602001828103825283818151815260200191508051906020019080838360005b83811015610a2e5780820151818401525b602081019050610a12565b50505050905090810190601f168015610a5b5780820380516001836020036101000a031916815260200191505b509250505060405180910390f35b610c1f600480360360c0811015610a805760006000fd5b81019080803573ffffffffffffffffffffffffffffffffffffffff16906020019092919080359060200190640100000000811115610abe5760006000fd5b820183602082011115610ad15760006000fd5b80359060200191846001830284011164010000000083111715610af45760006000fd5b91908080601f016020809104026020016040519081016040528093929190818152602001838380828437600081840152601f19601f8201169050808301925050505050505090909192909091929080359060200190640100000000811115610b5c5760006000fd5b820183602082011115610b6f5760006000fd5b80359060200191846001830284011164010000000083111715610b925760006000fd5b91908080601f016020809104026020016040519081016040528093929190818152602001838380828437600081840152601f19601f82011690508083019250505050505050909091929090919290803560ff169060200190929190803573ffffffffffffffffffffffffffffffffffffffff16906020019092919080359060200190929190505050611c91565b005b610c6460048036036020811015610c385760006000fd5b81019080803573ffffffffffffffffffffffffffffffffffffffff169060200190929190505050611df2565b005b610c6e611e79565b005b610cbd60048036036040811015610c875760006000fd5b81019080803573ffffffffffffffffffffffffffffffffffffffff16906020019092919080359060200190929190505050611e98565b604051808215151515815260200191505060405180910390f35b610d2460048036036040811015610cee5760006000fd5b81019080803573ffffffffffffffffffffffffffffffffffffffff16906020019092919080359060200190929190505050611f41565b604051808215151515815260200191505060405180910390f35b610d8160048036036020811015610d555760006000fd5b81019080803573ffffffffffffffffffffffffffffffffffffffff169060200190929190505050611fea565b604051808215151515815260200191505060405180910390f35b610dde60048036036020811015610db25760006000fd5b81019080803573ffffffffffffffffffffffffffffffffffffffff16906020019092919050505061200f565b005b610e2d60048036036040811015610df75760006000fd5b81019080803573ffffffffffffffffffffffffffffffffffffffff1690602001909291908035906020019092919050505061212c565b005b610e3761229c565b6040518082815260200191505060405180910390f35b610eb060048036036040811015610e645760006000fd5b81019080803573ffffffffffffffffffffffffffffffffffffffff169060200190929190803573ffffffffffffffffffffffffffffffffffffffff1690602001909291905050506122ae565b6040518082815260200191505060405180910390f35b610ece612343565b604051808273ffffffffffffffffffffffffffffffffffffffff1673ffffffffffffffffffffffffffffffffffffffff16815260200191505060405180910390f35b610f5360048036036020811015610f275760006000fd5b81019080803573ffffffffffffffffffffffffffffffffffffffff1690602001909291905050506123d1565b604051808215151515815260200191505060405180910390f35b6000610f8b610f8061246263ffffffff16565b611fea63ffffffff16565b1515610fe2576040517f08c379a00000000000000000000000000000000000000000000000000000000081526004018080602001828103825260308152602001806148666030913960400191505060405180910390fd5b610ff384848461246f63ffffffff16565b60019050610ffc565b5b9392505050565b60606101696000508054600181600116156101000203166002900480601f0160208091040260200160405190810160405280929190818152602001828054600181600116156101000203166002900480156110a05780601f10611075576101008083540402835291602001916110a0565b820191906000526020600020905b81548152906001019060200180831161108357829003601f168201915b505050505090506110ac565b90565b600061010460009054906101000a900460ff1615151561113a576040517f08c379a00000000000000000000000000000000000000000000000000000000081526004018080602001828103825260108152602001807f5061757361626c653a207061757365640000000000000000000000000000000081526020015060200191505060405180910390fd5b61114a838361275763ffffffff16565b9050611151565b5b92915050565b600060008311801561116a5750600082115b801561117b57506000603960005054115b156111b1576111aa60396000505461119c848661277990919063ffffffff16565b6127be90919063ffffffff16565b90506111ba565b600090506111ba565b92915050565b60006000831180156111d25750600082115b80156111e357506000603960005054115b1561121957611212603960005054611204848661277990919063ffffffff16565b6127be90919063ffffffff16565b9050611222565b60009050611222565b92915050565b600060019054906101000a900460ff168061124d575061124c6127f063ffffffff16565b5b806112655750600060009054906101000a900460ff16155b15156112bc576040517f08c379a000000000000000000000000000000000000000000000000000000000815260040180806020018281038252602e8152602001806148e2602e913960400191505060405180910390fd5b6000600060019054906101000a900460ff16159050801561130e576001600060016101000a81548160ff0219169083151502179055506001600060006101000a81548160ff0219169083151502179055505b836101696000509080519060200190611328929190614709565b508261016a6000509080519060200190611343929190614709565b508161016b60006101000a81548160ff021916908360ff1602179055505b8015611383576000600060016101000a81548160ff0219169083151502179055505b505b505050565b60006036600050549050611399565b90565b600061010460009054906101000a900460ff16151515611427576040517f08c379a00000000000000000000000000000000000000000000000000000000081526004018080602001828103825260108152602001807f5061757361626c653a207061757365640000000000000000000000000000000081526020015060200191505060405180910390fd5b61143884848461280863ffffffff16565b905061143f565b5b9392505050565b600061016b60009054906101000a900460ff169050611461565b90565b600061010460009054906101000a900460ff161515156114ef576040517f08c379a00000000000000000000000000000000000000000000000000000000081526004018080602001828103825260108152602001807f5061757361626c653a207061757365640000000000000000000000000000000081526020015060200191505060405180910390fd5b6114ff83836128d363ffffffff16565b9050611506565b5b92915050565b61152961151e61246263ffffffff16565b61174f63ffffffff16565b1515611580576040517f08c379a00000000000000000000000000000000000000000000000000000000081526004018080602001828103825260308152602001806147ba6030913960400191505060405180910390fd5b61010460009054906101000a900460ff161515611608576040517f08c379a00000000000000000000000000000000000000000000000000000000081526004018080602001828103825260148152602001807f5061757361626c653a206e6f742070617573656400000000000000000000000081526020015060200191505060405180910390fd5b600061010460006101000a81548160ff0219169083151502179055507f5db9ee0a495bf2e6ff9c91a7834c1ba4fdd244a5e8aa4e537bd38aeae4b073aa61165361246263ffffffff16565b604051808273ffffffffffffffffffffffffffffffffffffffff1673ffffffffffffffffffffffffffffffffffffffff16815260200191505060405180910390a15b5b5b565b60006116b76116ac61246263ffffffff16565b611fea63ffffffff16565b151561170e576040517f08c379a00000000000000000000000000000000000000000000000000000000081526004018080602001828103825260308152602001806148666030913960400191505060405180910390fd5b61171e838361298c63ffffffff16565b60019050611727565b5b92915050565b61174b61173f61246263ffffffff16565b82612b6563ffffffff16565b5b50565b60006117688260d1600050612d1e90919063ffffffff16565b905061176f565b919050565b600061010460009054906101000a900460ff16905061178e565b90565b60006117af6117a461246263ffffffff16565b611fea63ffffffff16565b1515611806576040517f08c379a00000000000000000000000000000000000000000000000000000000081526004018080602001828103825260308152602001806148666030913960400191505060405180910390fd5b6118168383612e2763ffffffff16565b6001905061181f565b5b92915050565b600061184461183961246263ffffffff16565b611fea63ffffffff16565b151561189b576040517f08c379a00000000000000000000000000000000000000000000000000000000081526004018080602001828103825260308152602001806148666030913960400191505060405180910390fd5b6118aa82612fd163ffffffff16565b600190506118b3565b5b919050565b60006118d76118cc61246263ffffffff16565b611fea63ffffffff16565b151561192e576040517f08c379a00000000000000000000000000000000000000000000000000000000081526004018080602001828103825260308152602001806148666030913960400191505060405180910390fd5b61193d8261314563ffffffff16565b9050611944565b5b919050565b61196661195b61246263ffffffff16565b61316163ffffffff16565b5b565b6000603360005060008373ffffffffffffffffffffffffffffffffffffffff1673ffffffffffffffffffffffffffffffffffffffff1681526020019081526020016000206000505490506119b8565b919050565b6119cd82826131bf63ffffffff16565b5b5050565b6119ee6119e361246263ffffffff16565b61174f63ffffffff16565b1515611a45576040517f08c379a00000000000000000000000000000000000000000000000000000000081526004018080602001828103825260308152602001806147ba6030913960400191505060405180910390fd5b611a548161327c63ffffffff16565b5b5b50565b611a75611a6a61246263ffffffff16565b61174f63ffffffff16565b1515611acc576040517f08c379a00000000000000000000000000000000000000000000000000000000081526004018080602001828103825260308152602001806147ba6030913960400191505060405180910390fd5b61010460009054906101000a900460ff16151515611b55576040517f08c379a00000000000000000000000000000000000000000000000000000000081526004018080602001828103825260108152602001807f5061757361626c653a207061757365640000000000000000000000000000000081526020015060200191505060405180910390fd5b600161010460006101000a81548160ff0219169083151502179055507f62e78cea01bee320cd4e420270b5ea74000d11b0c9f74754ebdbfc544b05a258611ba061246263ffffffff16565b604051808273ffffffffffffffffffffffffffffffffffffffff1673ffffffffffffffffffffffffffffffffffffffff16815260200191505060405180910390a15b5b5b565b606061016a6000508054600181600116156101000203166002900480601f016020809104026020016040519081016040528092919081815260200182805460018160011615610100020316600290048015611c825780601f10611c5757610100808354040283529160200191611c82565b820191906000526020600020905b815481529060010190602001808311611c6557829003601f168201915b50505050509050611c8e565b90565b600060019054906101000a900460ff1680611cb65750611cb56127f063ffffffff16565b5b80611cce5750600060009054906101000a900460ff16155b1515611d25576040517f08c379a000000000000000000000000000000000000000000000000000000000815260040180806020018281038252602e8152602001806148e2602e913960400191505060405180910390fd5b6000600060019054906101000a900460ff161590508015611d77576001600060016101000a81548160ff0219169083151502179055506001600060006101000a81548160ff0219169083151502179055505b611d86876132da63ffffffff16565b611d958761200f63ffffffff16565b611da4876133f763ffffffff16565b611db586868661122863ffffffff16565b611dc5838361212c63ffffffff16565b5b8015611de8576000600060016101000a81548160ff0219169083151502179055505b505b505050505050565b611e0e611e0361246263ffffffff16565b611fea63ffffffff16565b1515611e65576040517f08c379a00000000000000000000000000000000000000000000000000000000081526004018080602001828103825260308152602001806148666030913960400191505060405180910390fd5b611e748161351463ffffffff16565b5b5b50565b611e95611e8a61246263ffffffff16565b61357263ffffffff16565b5b565b600061010460009054906101000a900460ff16151515611f23576040517f08c379a00000000000000000000000000000000000000000000000000000000081526004018080602001828103825260108152602001807f5061757361626c653a207061757365640000000000000000000000000000000081526020015060200191505060405180910390fd5b611f3383836135d063ffffffff16565b9050611f3a565b5b92915050565b600061010460009054906101000a900460ff16151515611fcc576040517f08c379a00000000000000000000000000000000000000000000000000000000081526004018080602001828103825260108152602001807f5061757361626c653a207061757365640000000000000000000000000000000081526020015060200191505060405180910390fd5b611fdc838361368963ffffffff16565b9050611fe3565b5b92915050565b600061200382603a600050612d1e90919063ffffffff16565b905061200a565b919050565b600060019054906101000a900460ff168061203457506120336127f063ffffffff16565b5b8061204c5750600060009054906101000a900460ff16155b15156120a3576040517f08c379a000000000000000000000000000000000000000000000000000000000815260040180806020018281038252602e8152602001806148e2602e913960400191505060405180910390fd5b6000600060019054906101000a900460ff1615905080156120f5576001600060016101000a81548160ff0219169083151502179055506001600060006101000a81548160ff0219169083151502179055505b612104826136ab63ffffffff16565b5b8015612127576000600060016101000a81548160ff0219169083151502179055505b505b50565b600060019054906101000a900460ff168061215157506121506127f063ffffffff16565b5b806121695750600060009054906101000a900460ff16155b15156121c0576040517f08c379a000000000000000000000000000000000000000000000000000000000815260040180806020018281038252602e8152602001806148e2602e913960400191505060405180910390fd5b6000600060019054906101000a900460ff161590508015612212576001600060016101000a81548160ff0219169083151502179055506001600060006101000a81548160ff0219169083151502179055505b82603760006101000a81548173ffffffffffffffffffffffffffffffffffffffff021916908373ffffffffffffffffffffffffffffffffffffffff160217905550816038600050819090905550670de0b6b3a764000060396000508190909055505b8015612296576000600060016101000a81548160ff0219169083151502179055505b505b5050565b600060386000505490506122ab565b90565b6000603460005060008473ffffffffffffffffffffffffffffffffffffffff1673ffffffffffffffffffffffffffffffffffffffff16815260200190815260200160002060005060008373ffffffffffffffffffffffffffffffffffffffff1673ffffffffffffffffffffffffffffffffffffffff16815260200190815260200160002060005054905061233d565b92915050565b600061236161235661246263ffffffff16565b611fea63ffffffff16565b15156123b8576040517f08c379a00000000000000000000000000000000000000000000000000000000081526004018080602001828103825260308152602001806148666030913960400191505060405180910390fd5b6123c66137e463ffffffff16565b90506123cd565b5b90565b60006123ef6123e461246263ffffffff16565b611fea63ffffffff16565b1515612446576040517f08c379a00000000000000000000000000000000000000000000000000000000081526004018080602001828103825260308152602001806148666030913960400191505060405180910390fd5b6124558261381363ffffffff16565b905061245c565b5b919050565b600033905061246c565b90565b600073ffffffffffffffffffffffffffffffffffffffff168373ffffffffffffffffffffffffffffffffffffffff1614151515612517576040517f08c379a000000000000000000000000000000000000000000000000000000000815260040180806020018281038252601f8152602001807f45524332303a206d696e7420746f20746865207a65726f20616464726573730081526020015060200191505060405180910390fd5b600061252983836111c063ffffffff16565b9050612543836036600050546138ec90919063ffffffff16565b60366000508190909055506125b8612564828561391590919063ffffffff16565b603360005060008773ffffffffffffffffffffffffffffffffffffffff1673ffffffffffffffffffffffffffffffffffffffff168152602001908152602001600020600050546138ec90919063ffffffff16565b603360005060008673ffffffffffffffffffffffffffffffffffffffff1673ffffffffffffffffffffffffffffffffffffffff16815260200190815260200160002060005081909090555061267d8160336000506000603760009054906101000a900473ffffffffffffffffffffffffffffffffffffffff1673ffffffffffffffffffffffffffffffffffffffff1673ffffffffffffffffffffffffffffffffffffffff168152602001908152602001600020600050546138ec90919063ffffffff16565b60336000506000603760009054906101000a900473ffffffffffffffffffffffffffffffffffffffff1673ffffffffffffffffffffffffffffffffffffffff1673ffffffffffffffffffffffffffffffffffffffff1681526020019081526020016000206000508190909055508373ffffffffffffffffffffffffffffffffffffffff16600073ffffffffffffffffffffffffffffffffffffffff167fddf252ad1be2c89b69c2b068fc378daa952ba7f163c4a11628f55a4df523b3ef856040518082815260200191505060405180910390a3505b505050565b600061276a33848461393e63ffffffff16565b60019050612773565b92915050565b6000600083141561278d57600090506127b8565b600082840290508284828115156127a057fe5b041415156127ae5760006000fd5b809150506127b856505b92915050565b60006000821115156127d05760006000fd5b600082848115156127dd57fe5b049050809150506127ea56505b92915050565b60006000303b90506000811491505061280556505b90565b600061281b848484613b4563ffffffff16565b6128c384336128b885603460005060008a73ffffffffffffffffffffffffffffffffffffffff1673ffffffffffffffffffffffffffffffffffffffff16815260200190815260200160002060005060003373ffffffffffffffffffffffffffffffffffffffff1673ffffffffffffffffffffffffffffffffffffffff1681526020019081526020016000206000505461391590919063ffffffff16565b61393e63ffffffff16565b600190506128cc565b9392505050565b600061297d338461297285603460005060003373ffffffffffffffffffffffffffffffffffffffff1673ffffffffffffffffffffffffffffffffffffffff16815260200190815260200160002060005060008973ffffffffffffffffffffffffffffffffffffffff1673ffffffffffffffffffffffffffffffffffffffff168152602001908152602001600020600050546138ec90919063ffffffff16565b61393e63ffffffff16565b60019050612986565b92915050565b600073ffffffffffffffffffffffffffffffffffffffff168273ffffffffffffffffffffffffffffffffffffffff1614151515612a34576040517f08c379a000000000000000000000000000000000000000000000000000000000815260040180806020018281038252601f8152602001807f45524332303a206d696e7420746f20746865207a65726f20616464726573730081526020015060200191505060405180910390fd5b612a4c816036600050546138ec90919063ffffffff16565b6036600050819090905550612aaf81603360005060008573ffffffffffffffffffffffffffffffffffffffff1673ffffffffffffffffffffffffffffffffffffffff168152602001908152602001600020600050546138ec90919063ffffffff16565b603360005060008473ffffffffffffffffffffffffffffffffffffffff1673ffffffffffffffffffffffffffffffffffffffff1681526020019081526020016000206000508190909055508173ffffffffffffffffffffffffffffffffffffffff16600073ffffffffffffffffffffffffffffffffffffffff167fddf252ad1be2c89b69c2b068fc378daa952ba7f163c4a11628f55a4df523b3ef836040518082815260200191505060405180910390a35b5050565b600073ffffffffffffffffffffffffffffffffffffffff168273ffffffffffffffffffffffffffffffffffffffff1614151515612bed576040517f08c379a000000000000000000000000000000000000000000000000000000000815260040180806020018281038252602181526020018061495f6021913960400191505060405180910390fd5b612c058160366000505461391590919063ffffffff16565b6036600050819090905550612c6881603360005060008573ffffffffffffffffffffffffffffffffffffffff1673ffffffffffffffffffffffffffffffffffffffff1681526020019081526020016000206000505461391590919063ffffffff16565b603360005060008473ffffffffffffffffffffffffffffffffffffffff1673ffffffffffffffffffffffffffffffffffffffff168152602001908152602001600020600050819090905550600073ffffffffffffffffffffffffffffffffffffffff168273ffffffffffffffffffffffffffffffffffffffff167fddf252ad1be2c89b69c2b068fc378daa952ba7f163c4a11628f55a4df523b3ef836040518082815260200191505060405180910390a35b5050565b6000600073ffffffffffffffffffffffffffffffffffffffff168273ffffffffffffffffffffffffffffffffffffffff1614151515612dc8576040517f08c379a000000000000000000000000000000000000000000000000000000000815260040180806020018281038252601b8152602001807f526f6c65733a20496e76616c6964207a65726f2061646472657373000000000081526020015060200191505060405180910390fd5b8260000160005060008373ffffffffffffffffffffffffffffffffffffffff1673ffffffffffffffffffffffffffffffffffffffff16815260200190815260200160002060009054906101000a900460ff169050612e21565b92915050565b600073ffffffffffffffffffffffffffffffffffffffff168273ffffffffffffffffffffffffffffffffffffffff1614151515612ecf576040517f08c379a000000000000000000000000000000000000000000000000000000000815260040180806020018281038252601f8152602001807f45524332303a20496e76616c6964206164647265737320283078302e2e29210081526020015060200191505060405180910390fd5b604051806040016040528060011515815260200182815260200150603560005060008473ffffffffffffffffffffffffffffffffffffffff1673ffffffffffffffffffffffffffffffffffffffff16815260200190815260200160002060005060008201518160000160006101000a81548160ff0219169083151502179055506020820151816001016000509090559050507f7e15d34cee3a605f2683999246173de7937c28aa436b91721ae6eb43073f62758282604051808373ffffffffffffffffffffffffffffffffffffffff1673ffffffffffffffffffffffffffffffffffffffff1681526020018281526020019250505060405180910390a15b5050565b600073ffffffffffffffffffffffffffffffffffffffff168173ffffffffffffffffffffffffffffffffffffffff1614151515613079576040517f08c379a000000000000000000000000000000000000000000000000000000000815260040180806020018281038252601f8152602001807f45524332303a206d696e7420746f20746865207a65726f20616464726573730081526020015060200191505060405180910390fd5b603560005060008273ffffffffffffffffffffffffffffffffffffffff1673ffffffffffffffffffffffffffffffffffffffff16815260200190815260200160002060006000820160006101000a81549060ff0219169055600182016000506000905550507fcc213c7a81726914f80bcdc08038dab6d65315e570e7a5dfd37ecf7f268252d481604051808273ffffffffffffffffffffffffffffffffffffffff1673ffffffffffffffffffffffffffffffffffffffff16815260200191505060405180910390a15b50565b60008160386000508190909055506001905061315c565b919050565b6131788160d160005061418090919063ffffffff16565b8073ffffffffffffffffffffffffffffffffffffffff167fcd265ebaf09df2871cc7bd4133404a235ba12eff2041bb89d9c714a2621c7c7e60405160405180910390a25b50565b6131cf8282612b6563ffffffff16565b613277823361326c84603460005060008873ffffffffffffffffffffffffffffffffffffffff1673ffffffffffffffffffffffffffffffffffffffff16815260200190815260200160002060005060003373ffffffffffffffffffffffffffffffffffffffff1673ffffffffffffffffffffffffffffffffffffffff1681526020019081526020016000206000505461391590919063ffffffff16565b61393e63ffffffff16565b5b5050565b6132938160d160005061431190919063ffffffff16565b8073ffffffffffffffffffffffffffffffffffffffff167f6719d08c1888103bea251a4ed56406bd0c3e69723c8a1686e017e7bbe159b6f860405160405180910390a25b50565b600060019054906101000a900460ff16806132ff57506132fe6127f063ffffffff16565b5b806133175750600060009054906101000a900460ff16155b151561336e576040517f08c379a000000000000000000000000000000000000000000000000000000000815260040180806020018281038252602e8152602001806148e2602e913960400191505060405180910390fd5b6000600060019054906101000a900460ff1615905080156133c0576001600060016101000a81548160ff0219169083151502179055506001600060006101000a81548160ff0219169083151502179055505b6133cf826144a363ffffffff16565b5b80156133f2576000600060016101000a81548160ff0219169083151502179055505b505b50565b600060019054906101000a900460ff168061341c575061341b6127f063ffffffff16565b5b806134345750600060009054906101000a900460ff16155b151561348b576040517f08c379a000000000000000000000000000000000000000000000000000000000815260040180806020018281038252602e8152602001806148e2602e913960400191505060405180910390fd5b6000600060019054906101000a900460ff1615905080156134dd576001600060016101000a81548160ff0219169083151502179055506001600060006101000a81548160ff0219169083151502179055505b6134ec826144a363ffffffff16565b5b801561350f576000600060016101000a81548160ff0219169083151502179055505b505b50565b61352b81603a60005061431190919063ffffffff16565b8073ffffffffffffffffffffffffffffffffffffffff167f6ae172837ea30b801fbfcdd4108aa1d5bf8ff775444fd70256b44e6bf3dfc3f660405160405180910390a25b50565b61358981603a60005061418090919063ffffffff16565b8073ffffffffffffffffffffffffffffffffffffffff167fe94479a9f7e1952cc78f2d6baab678adc1b772d936c6583def489e524cb6669260405160405180910390a25b50565b600061367a338461366f85603460005060003373ffffffffffffffffffffffffffffffffffffffff1673ffffffffffffffffffffffffffffffffffffffff16815260200190815260200160002060005060008973ffffffffffffffffffffffffffffffffffffffff1673ffffffffffffffffffffffffffffffffffffffff1681526020019081526020016000206000505461391590919063ffffffff16565b61393e63ffffffff16565b60019050613683565b92915050565b600061369c338484613b4563ffffffff16565b600190506136a5565b92915050565b600060019054906101000a900460ff16806136d057506136cf6127f063ffffffff16565b5b806136e85750600060009054906101000a900460ff16155b151561373f576040517f08c379a000000000000000000000000000000000000000000000000000000000815260040180806020018281038252602e8152602001806148e2602e913960400191505060405180910390fd5b6000600060019054906101000a900460ff161590508015613791576001600060016101000a81548160ff0219169083151502179055506001600060006101000a81548160ff0219169083151502179055505b6137a0826145d663ffffffff16565b600061010460006101000a81548160ff0219169083151502179055505b80156137df576000600060016101000a81548160ff0219169083151502179055505b505b50565b6000603760009054906101000a900473ffffffffffffffffffffffffffffffffffffffff169050613810565b90565b6000600073ffffffffffffffffffffffffffffffffffffffff168273ffffffffffffffffffffffffffffffffffffffff161415151561389d576040517f08c379a00000000000000000000000000000000000000000000000000000000081526004018080602001828103825260238152602001806149106023913960400191505060405180910390fd5b81603760006101000a81548173ffffffffffffffffffffffffffffffffffffffff021916908373ffffffffffffffffffffffffffffffffffffffff160217905550600190506138e7565b919050565b6000600082840190508381101515156139055760006000fd5b8091505061390f56505b92915050565b60008282111515156139275760006000fd5b600082840390508091505061393856505b92915050565b600073ffffffffffffffffffffffffffffffffffffffff168373ffffffffffffffffffffffffffffffffffffffff16141515156139c6576040517f08c379a000000000000000000000000000000000000000000000000000000000815260040180806020018281038252602c815260200180614933602c913960400191505060405180910390fd5b600073ffffffffffffffffffffffffffffffffffffffff168273ffffffffffffffffffffffffffffffffffffffff1614151515613a4e576040517f08c379a000000000000000000000000000000000000000000000000000000000815260040180806020018281038252602a81526020018061483c602a913960400191505060405180910390fd5b80603460005060008573ffffffffffffffffffffffffffffffffffffffff1673ffffffffffffffffffffffffffffffffffffffff16815260200190815260200160002060005060008473ffffffffffffffffffffffffffffffffffffffff1673ffffffffffffffffffffffffffffffffffffffff1681526020019081526020016000206000508190909055508173ffffffffffffffffffffffffffffffffffffffff168373ffffffffffffffffffffffffffffffffffffffff167f8c5be1e5ebec7d5bd14f71427d1e84f3dd0314c0f7b2291e5b200ac8c7c3b925836040518082815260200191505060405180910390a35b505050565b600073ffffffffffffffffffffffffffffffffffffffff163373ffffffffffffffffffffffffffffffffffffffff1614151515613bcd576040517f08c379a000000000000000000000000000000000000000000000000000000000815260040180806020018281038252602d8152602001806147ea602d913960400191505060405180910390fd5b600073ffffffffffffffffffffffffffffffffffffffff168273ffffffffffffffffffffffffffffffffffffffff1614151515613c55576040517f08c379a000000000000000000000000000000000000000000000000000000000815260040180806020018281038252602b8152602001806148b7602b913960400191505060405180910390fd5b600081111515613cb0576040517f08c379a00000000000000000000000000000000000000000000000000000000081526004018080602001828103825260218152602001806148966021913960400191505060405180910390fd5b80603360005060008573ffffffffffffffffffffffffffffffffffffffff1673ffffffffffffffffffffffffffffffffffffffff1681526020019081526020016000206000505410151515613d50576040517f08c379a00000000000000000000000000000000000000000000000000000000081526004018080602001828103825260258152602001806148176025913960400191505060405180910390fd5b60006000603560005060008673ffffffffffffffffffffffffffffffffffffffff1673ffffffffffffffffffffffffffffffffffffffff16815260200190815260200160002060005090508060000160009054906101000a900460ff168015613dc0575060008160010160005054115b15613de557613ddc83826001016000505461115863ffffffff16565b91508150613e31565b8060000160009054906101000a900460ff1615613e1657613e0d83600061115863ffffffff16565b91508150613e30565b613e2b8360386000505461115863ffffffff16565b915081505b5b613e8983603360005060008873ffffffffffffffffffffffffffffffffffffffff1673ffffffffffffffffffffffffffffffffffffffff1681526020019081526020016000206000505461391590919063ffffffff16565b603360005060008773ffffffffffffffffffffffffffffffffffffffff1673ffffffffffffffffffffffffffffffffffffffff168152602001908152602001600020600050819090905550613f3e613eea838561391590919063ffffffff16565b603360005060008773ffffffffffffffffffffffffffffffffffffffff1673ffffffffffffffffffffffffffffffffffffffff168152602001908152602001600020600050546138ec90919063ffffffff16565b603360005060008673ffffffffffffffffffffffffffffffffffffffff1673ffffffffffffffffffffffffffffffffffffffff1681526020019081526020016000206000508190909055508373ffffffffffffffffffffffffffffffffffffffff168573ffffffffffffffffffffffffffffffffffffffff167fddf252ad1be2c89b69c2b068fc378daa952ba7f163c4a11628f55a4df523b3ef613feb858761391590919063ffffffff16565b6040518082815260200191505060405180910390a36000821115614178576140838260336000506000603760009054906101000a900473ffffffffffffffffffffffffffffffffffffffff1673ffffffffffffffffffffffffffffffffffffffff1673ffffffffffffffffffffffffffffffffffffffff168152602001908152602001600020600050546138ec90919063ffffffff16565b60336000506000603760009054906101000a900473ffffffffffffffffffffffffffffffffffffffff1673ffffffffffffffffffffffffffffffffffffffff1673ffffffffffffffffffffffffffffffffffffffff168152602001908152602001600020600050819090905550603760009054906101000a900473ffffffffffffffffffffffffffffffffffffffff1673ffffffffffffffffffffffffffffffffffffffff168573ffffffffffffffffffffffffffffffffffffffff167fddf252ad1be2c89b69c2b068fc378daa952ba7f163c4a11628f55a4df523b3ef846040518082815260200191505060405180910390a35b50505b505050565b600073ffffffffffffffffffffffffffffffffffffffff168173ffffffffffffffffffffffffffffffffffffffff1614151515614228576040517f08c379a000000000000000000000000000000000000000000000000000000000815260040180806020018281038252601b8152602001807f526f6c65733a20496e76616c6964207a65726f2061646472657373000000000081526020015060200191505060405180910390fd5b6142388282612d1e63ffffffff16565b15156142af576040517f08c379a000000000000000000000000000000000000000000000000000000000815260040180806020018281038252601e8152602001807f526f6c65733a2052656d6f76696e67206f6620726f6c65206661696c6564000081526020015060200191505060405180910390fd5b60008260000160005060008373ffffffffffffffffffffffffffffffffffffffff1673ffffffffffffffffffffffffffffffffffffffff16815260200190815260200160002060006101000a81548160ff0219169083151502179055505b5050565b600073ffffffffffffffffffffffffffffffffffffffff168173ffffffffffffffffffffffffffffffffffffffff16141515156143b9576040517f08c379a000000000000000000000000000000000000000000000000000000000815260040180806020018281038252601b8152602001807f526f6c65733a20496e76616c6964207a65726f2061646472657373000000000081526020015060200191505060405180910390fd5b6143c98282612d1e63ffffffff16565b151515614441576040517f08c379a000000000000000000000000000000000000000000000000000000000815260040180806020018281038252601b8152602001807f526f6c65733a20496e76616c6964207a65726f2061646472657373000000000081526020015060200191505060405180910390fd5b60018260000160005060008373ffffffffffffffffffffffffffffffffffffffff1673ffffffffffffffffffffffffffffffffffffffff16815260200190815260200160002060006101000a81548160ff0219169083151502179055505b5050565b600060019054906101000a900460ff16806144c857506144c76127f063ffffffff16565b5b806144e05750600060009054906101000a900460ff16155b1515614537576040517f08c379a000000000000000000000000000000000000000000000000000000000815260040180806020018281038252602e8152602001806148e2602e913960400191505060405180910390fd5b6000600060019054906101000a900460ff161590508015614589576001600060016101000a81548160ff0219169083151502179055506001600060006101000a81548160ff0219169083151502179055505b61459882611fea63ffffffff16565b15156145ae576145ad8261351463ffffffff16565b5b5b80156145d1576000600060016101000a81548160ff0219169083151502179055505b505b50565b600060019054906101000a900460ff16806145fb57506145fa6127f063ffffffff16565b5b806146135750600060009054906101000a900460ff16155b151561466a576040517f08c379a000000000000000000000000000000000000000000000000000000000815260040180806020018281038252602e8152602001806148e2602e913960400191505060405180910390fd5b6000600060019054906101000a900460ff1615905080156146bc576001600060016101000a81548160ff0219169083151502179055506001600060006101000a81548160ff0219169083151502179055505b6146cb8261174f63ffffffff16565b15156146e1576146e08261327c63ffffffff16565b5b5b8015614704576000600060016101000a81548160ff0219169083151502179055505b505b50565b828054600181600116156101000203166002900490600052602060002090601f016020900481019282601f1061474a57805160ff191683800117855561477d565b8280016001018555821561477d579182015b8281111561477c578251826000509090559160200191906001019061475c565b5b50905061478a919061478e565b5090565b6147b69190614798565b808211156147b25760008181506000905550600101614798565b5090565b9056fe506175736572526f6c653a2063616c6c657220646f6573206e6f742068617665207468652050617573657220726f6c6545524332303a20496e76616c6964207472616e736665722066726f6d20746865207a65726f206164647265737345524332303a2047474320546f6b656e2066756e6420697320696e73756666696369656e7445524332303a20496e76616c696420617070726f766520746f20746865207a65726f20616464726573734d696e746572526f6c653a2063616c6c657220646f6573206e6f74206861766520746865204d696e74657220726f6c6545524332303a20496e76616c696420616d6f756e7420746f207472616e7366657245524332303a20496e76616c6964207472616e7366657220746f20746865207a65726f2061646472657373436f6e747261637420696e7374616e63652068617320616c7265616479206265656e20696e697469616c697a656445524332303a20496e76616c696420666565207265636569766572206164647265737345524332303a20496e76616c696420617070726f76652066726f6d20746865207a65726f206164647265737345524332303a206275726e2066726f6d20746865207a65726f2061646472657373a265627a7a72315820bd9bb3070f0be3f7f18393122fbff36e02548e9a8617e482efea3f8d92f1740464736f6c634300050b0032",
  "compiler": {
    "name": "solc",
    "version": "0.5.11+commit.c082d0b4.Emscripten.clang",
    "optimizer": {},
    "evmVersion": "constantinople"
  }
}